{
  "abi": [
    {
      "inputs": [
        {
          "internalType": "uint256",
          "name": "amount",
          "type": "uint256"
        },
        {
          "internalType": "uint256",
          "name": "_raisedAmount",
          "type": "uint256"
        },
        {
          "internalType": "address",
          "name": "_user",
          "type": "address"
        }
      ],
      "stateMutability": "nonpayable",
      "type": "constructor"
    },
    {
      "inputs": [],
      "name": "_token",
      "outputs": [
        {
          "internalType": "contract IERC20",
          "name": "",
          "type": "address"
        }
      ],
      "stateMutability": "view",
      "type": "function"
    },
    {
      "inputs": [],
      "name": "adding_value",
      "outputs": [],
      "stateMutability": "nonpayable",
      "type": "function"
    },
    {
      "inputs": [],
      "name": "callEndContract",
      "outputs": [],
      "stateMutability": "nonpayable",
      "type": "function"
    },
    {
      "inputs": [
        {
          "internalType": "address",
          "name": "_userAddr",
          "type": "address"
        }
      ],
      "name": "checkIfUser",
      "outputs": [
        {
          "internalType": "bool",
          "name": "",
          "type": "bool"
        }
      ],
      "stateMutability": "view",
      "type": "function"
    },
    {
      "inputs": [],
      "name": "checkTimeRemaining",
      "outputs": [
        {
          "internalType": "uint256",
          "name": "",
          "type": "uint256"
        }
      ],
      "stateMutability": "view",
      "type": "function"
    },
    {
      "inputs": [
        {
          "internalType": "bytes",
          "name": "",
          "type": "bytes"
        }
      ],
      "name": "checkUpkeep",
      "outputs": [
        {
          "internalType": "bool",
          "name": "upkeepNeeded",
          "type": "bool"
        },
        {
          "internalType": "bytes",
          "name": "performData",
          "type": "bytes"
        }
      ],
      "stateMutability": "view",
      "type": "function"
    },
    {
      "inputs": [
        {
          "internalType": "address",
          "name": "",
          "type": "address"
        }
      ],
      "name": "contractStats",
      "outputs": [
        {
          "internalType": "address",
          "name": "assetCreator",
          "type": "address"
        },
        {
          "internalType": "address",
          "name": "assetUser",
          "type": "address"
        }
      ],
      "stateMutability": "view",
      "type": "function"
    },
    {
      "inputs": [],
      "name": "duration",
      "outputs": [
        {
          "internalType": "uint256",
          "name": "",
          "type": "uint256"
        }
      ],
      "stateMutability": "view",
      "type": "function"
    },
    {
      "inputs": [],
      "name": "endBlock",
      "outputs": [
        {
          "internalType": "uint256",
          "name": "",
          "type": "uint256"
        }
      ],
      "stateMutability": "view",
      "type": "function"
    },
    {
      "inputs": [
        {
          "internalType": "bytes",
          "name": "",
          "type": "bytes"
        }
      ],
      "name": "performUpkeep",
      "outputs": [],
      "stateMutability": "nonpayable",
      "type": "function"
    },
    {
      "inputs": [],
      "name": "startBlock",
      "outputs": [
        {
          "internalType": "uint256",
          "name": "",
          "type": "uint256"
        }
      ],
      "stateMutability": "view",
      "type": "function"
    },
    {
      "inputs": [
        {
          "internalType": "address",
          "name": "_creatorAddr",
          "type": "address"
        },
        {
          "internalType": "uint256",
          "name": "_duration",
          "type": "uint256"
        }
      ],
      "name": "startContract",
      "outputs": [],
      "stateMutability": "nonpayable",
      "type": "function"
    }
  ],
  "bytecode": {
    "object": "0x60a060405234801561001057600080fd5b50604051610ad8380380610ad883398101604081905261002f91610094565b73096f6a2b185d63d942750a2d961f7762401cba1760005260016020527fa312cf60d618bba269edc127421a8ea17f49a36216970ae288928192c4de952080546001600160a01b0319166001600160a01b0392909216919091179055608052506100da565b6000806000606084860312156100a957600080fd5b83516020850151604086015191945092506001600160a01b03811681146100cf57600080fd5b809150509250925092565b6080516109dc6100fc600039600081816103cc01526106dd01526109dc6000f3fe608060405234801561001057600080fd5b50600436106100b45760003560e01c80636e04ff0d116100715780636e04ff0d14610104578063c1d4f9571461012e578063c6c6d29214610182578063ecd0c0c314610195578063f65861c3146101c0578063facda813146101e357600080fd5b80630619a438146100b9578063083c6323146100bb5780630fb5a6b4146100d757806340c6ed97146100e05780634585e33b146100e857806348cd4cb1146100fb575b600080fd5b005b6100c460045481565b6040519081526020015b60405180910390f35b6100c460025481565b6100c46101ed565b6100b96100f63660046107cb565b610202565b6100c460035481565b6101206101123660046107cb565b505060045442101590606090565b6040516100ce92919061083d565b61016261013c3660046108b8565b600160208190526000918252604090912080549101546001600160a01b03918216911682565b604080516001600160a01b039384168152929091166020830152016100ce565b6100b96101903660046108da565b610217565b6005546101a8906001600160a01b031681565b6040516001600160a01b0390911681526020016100ce565b6101d36101ce3660046108b8565b61028b565b60405190151581526020016100ce565b6100b9610317565b565b6000426004546101fd919061091a565b905090565b600454421061021357610213610370565b5050565b73096f6a2b185d63d942750a2d961f7762401cba1760005260016020527fa312cf60d618bba269edc127421a8ea17f49a36216970ae288928192c4de951f80546001600160a01b0319166001600160a01b0384161790554260038190556002829055610284908290610931565b6004555050565b336000908152600160208190526040822001546001600160a01b0383811691161461030f5760405162461bcd60e51b815260206004820152602960248201527f596f7520617265206e6f7420726573706f6e7369626c6520666f7220746869736044820152680818dbdb9d1c9858dd60ba1b60648201526084015b60405180910390fd5b506001919050565b6103203361028b565b61036c5760405162461bcd60e51b815260206004820152601c60248201527f596f752063616e6e6f7420656e64207468697320636f6e7472616374000000006044820152606401610306565b6101eb5b6103793361028b565b1561076c576002805461038c9190610949565b600454610399919061091a565b4210610689576005546001600160a01b031663a9059cbb73ecf6d20544d0e84ca3ab683f0394158e6c75eaae6103f060027f0000000000000000000000000000000000000000000000000000000000000000610949565b6040516001600160e01b031960e085901b1681526001600160a01b03909216600483015260248201526044016020604051808303816000875af115801561043b573d6000803e3d6000fd5b505050506040513d601f19601f8201168201806040525081019061045f919061096b565b5060055433600090815260016020526040908190205490516370a0823160e01b815273096f6a2b185d63d942750a2d961f7762401cba1760048201526001600160a01b039283169263a9059cbb92169060029084906370a0823190602401602060405180830381865afa1580156104da573d6000803e3d6000fd5b505050506040513d601f19601f820116820180604052508101906104fe919061098d565b6105089190610949565b6040516001600160e01b031960e085901b1681526001600160a01b03909216600483015260248201526044016020604051808303816000875af1158015610553573d6000803e3d6000fd5b505050506040513d601f19601f82011682018060405250810190610577919061096b565b5060055433600090815260016020819052604091829020015490516370a0823160e01b815273096f6a2b185d63d942750a2d961f7762401cba1760048201526001600160a01b039283169263a9059cbb92169083906370a08231906024015b602060405180830381865afa1580156105f3573d6000803e3d6000fd5b505050506040513d601f19601f82011682018060405250810190610617919061098d565b6040516001600160e01b031960e085901b1681526001600160a01b03909216600483015260248201526044016020604051808303816000875af1158015610662573d6000803e3d6000fd5b505050506040513d601f19601f82011682018060405250810190610686919061096b565b50565b6005546040516370a0823160e01b815273096f6a2b185d63d942750a2d961f7762401cba1760048201526001600160a01b039091169063a9059cbb9073ecf6d20544d0e84ca3ab683f0394158e6c75eaae907f000000000000000000000000000000000000000000000000000000000000000090600a90829086906370a0823190602401602060405180830381865afa15801561072a573d6000803e3d6000fd5b505050506040513d601f19601f8201168201806040525081019061074e919061098d565b610758919061091a565b6107629190610949565b6105089190610931565b60055433600090815260016020526040908190205490516370a0823160e01b815273096f6a2b185d63d942750a2d961f7762401cba1760048201526001600160a01b039283169263a9059cbb92169083906370a08231906024016105d6565b600080602083850312156107de57600080fd5b823567ffffffffffffffff808211156107f657600080fd5b818501915085601f83011261080a57600080fd5b81358181111561081957600080fd5b86602082850101111561082b57600080fd5b60209290920196919550909350505050565b821515815260006020604081840152835180604085015260005b8181101561087357858101830151858201606001528201610857565b81811115610885576000606083870101525b50601f01601f191692909201606001949350505050565b80356001600160a01b03811681146108b357600080fd5b919050565b6000602082840312156108ca57600080fd5b6108d38261089c565b9392505050565b600080604083850312156108ed57600080fd5b6108f68361089c565b946020939093013593505050565b634e487b7160e01b600052601160045260246000fd5b60008282101561092c5761092c610904565b500390565b6000821982111561094457610944610904565b500190565b60008261096657634e487b7160e01b600052601260045260246000fd5b500490565b60006020828403121561097d57600080fd5b815180151581146108d357600080fd5b60006020828403121561099f57600080fd5b505191905056fea2646970667358221220279080a73f02b01988fbc0c8841a2a6dda48221b0b10a410bec1a0a756bfa82264736f6c634300080d0033",
    "linkReferences": {}
  }
}