{
  "abi": [
    {
      "inputs": [
        {
          "internalType": "uint256",
          "name": "amount",
          "type": "uint256"
        },
        {
          "internalType": "uint256",
          "name": "_duration",
          "type": "uint256"
        },
        {
          "internalType": "address",
          "name": "user",
          "type": "address"
        }
      ],
      "stateMutability": "nonpayable",
      "type": "constructor"
    },
    {
      "inputs": [
        {
          "internalType": "address",
          "name": "_address",
          "type": "address"
        }
      ],
      "name": "assignCreator",
      "outputs": [],
      "stateMutability": "view",
      "type": "function"
    },
    {
      "inputs": [],
      "name": "callEndContract",
      "outputs": [],
      "stateMutability": "nonpayable",
      "type": "function"
    },
    {
      "inputs": [
        {
          "internalType": "address",
          "name": "_address",
          "type": "address"
        }
      ],
      "name": "checkIfInContract",
      "outputs": [
        {
          "internalType": "bool",
          "name": "",
          "type": "bool"
        }
      ],
      "stateMutability": "view",
      "type": "function"
    },
    {
      "inputs": [
        {
          "internalType": "bytes",
          "name": "",
          "type": "bytes"
        }
      ],
      "name": "checkUpkeep",
      "outputs": [
        {
          "internalType": "bool",
          "name": "upkeepNeeded",
          "type": "bool"
        }
      ],
      "stateMutability": "view",
      "type": "function"
    },
    {
      "inputs": [],
      "name": "lockedTokens",
      "outputs": [
        {
          "internalType": "int256",
          "name": "",
          "type": "int256"
        }
      ],
      "stateMutability": "view",
      "type": "function"
    },
    {
      "inputs": [
        {
          "internalType": "bytes",
          "name": "",
          "type": "bytes"
        }
      ],
      "name": "performUpkeep",
      "outputs": [],
      "stateMutability": "nonpayable",
      "type": "function"
    }
  ],
  "bytecode": {
    "object": "0x61010060405234801561001157600080fd5b50604051610549380380610549833981016040819052610030916100f2565b60808290526001600160a01b03811660e0524260a0819052610053908390610138565b60c0526001546000546040516323b872dd60e01b815273ecf6d20544d0e84ca3ab683f0394158e6c75eaae60048201526001600160a01b039182166024820152604481018690529116906323b872dd906064016020604051808303816000875af11580156100c5573d6000803e3d6000fd5b505050506040513d601f19601f820116820180604052508101906100e9919061015e565b50505050610187565b60008060006060848603121561010757600080fd5b83516020850151604086015191945092506001600160a01b038116811461012d57600080fd5b809150509250925092565b6000821982111561015957634e487b7160e01b600052601160045260246000fd5b500190565b60006020828403121561017057600080fd5b8151801515811461018057600080fd5b9392505050565b60805160a05160c05160e0516103786101d1600039600061015101526000818160d80152818161011c015281816101dd015261022b015260005050600061020a01526103786000f3fe608060405234801561001057600080fd5b50600436106100625760003560e01c80630eb347401461006757806315aacc601461007b5780634585e33b146100905780635ac1bdec146100a35780636e04ff0d146100c6578063facda813146100fd575b600080fd5b604051600081526020015b60405180910390f35b61008e610089366004610259565b610105565b005b61008e61009e366004610289565b61011a565b6100b66100b1366004610259565b61014d565b6040519015158152602001610072565b6100b66100d4366004610289565b50507f000000000000000000000000000000000000000000000000000000000000000042101590565b61008e6101b1565b61010e3361014d565b61011757600080fd5b50565b7f00000000000000000000000000000000000000000000000000000000000000004210610149576101496101cd565b5050565b60007f00000000000000000000000000000000000000000000000000000000000000006001600160a01b0316826001600160a01b0316148061019c57506002546001600160a01b038381169116145b156101a957506001919050565b506000919050565b6101ba3361014d565b6101c357600080fd5b6101cb6101cd565b565b6101d63361014d565b156101cb577f00000000000000000000000000000000000000000000000000000000000000004210156101cb57600261024f7f00000000000000000000000000000000000000000000000000000000000000007f00000000000000000000000000000000000000000000000000000000000000006102fb565b6101179190610320565b60006020828403121561026b57600080fd5b81356001600160a01b038116811461028257600080fd5b9392505050565b6000806020838503121561029c57600080fd5b823567ffffffffffffffff808211156102b457600080fd5b818501915085601f8301126102c857600080fd5b8135818111156102d757600080fd5b8660208285010111156102e957600080fd5b60209290920196919550909350505050565b60008282101561031b57634e487b7160e01b600052601160045260246000fd5b500390565b60008261033d57634e487b7160e01b600052601260045260246000fd5b50049056fea2646970667358221220cd292a6bb04bcf5f2d5f17aa4c6ef54ddcb6bb6b192c0ace11edf11c800a596a64736f6c634300080d0033",
    "linkReferences": {}
  }
}