{
  "abi": [
    {
      "inputs": [
        {
          "internalType": "uint256",
          "name": "_releaseTime",
          "type": "uint256"
        },
        {
          "internalType": "uint256",
          "name": "amount",
          "type": "uint256"
        },
        {
          "internalType": "address",
          "name": "_creator",
          "type": "address"
        },
        {
          "internalType": "contract IERC20",
          "name": "_tokens",
          "type": "address"
        },
        {
          "internalType": "uint8",
          "name": "_deadlineInterval",
          "type": "uint8"
        }
      ],
      "stateMutability": "nonpayable",
      "type": "constructor"
    },
    {
      "inputs": [],
      "name": "getAmount",
      "outputs": [
        {
          "internalType": "uint256",
          "name": "",
          "type": "uint256"
        }
      ],
      "stateMutability": "view",
      "type": "function"
    },
    {
      "inputs": [],
      "name": "getCreator",
      "outputs": [
        {
          "internalType": "address",
          "name": "",
          "type": "address"
        }
      ],
      "stateMutability": "view",
      "type": "function"
    },
    {
      "inputs": [],
      "name": "getUser",
      "outputs": [
        {
          "internalType": "address",
          "name": "",
          "type": "address"
        }
      ],
      "stateMutability": "view",
      "type": "function"
    },
    {
      "inputs": [
        {
          "internalType": "bool",
          "name": "",
          "type": "bool"
        }
      ],
      "name": "listWhite",
      "outputs": [
        {
          "internalType": "address",
          "name": "",
          "type": "address"
        }
      ],
      "stateMutability": "view",
      "type": "function"
    },
    {
      "inputs": [],
      "name": "releaseFunds",
      "outputs": [],
      "stateMutability": "nonpayable",
      "type": "function"
    },
    {
      "inputs": [],
      "name": "releaseToCreator",
      "outputs": [],
      "stateMutability": "payable",
      "type": "function"
    },
    {
      "inputs": [
        {
          "internalType": "uint256",
          "name": "amount",
          "type": "uint256"
        }
      ],
      "name": "releaseToUser",
      "outputs": [],
      "stateMutability": "payable",
      "type": "function"
    },
    {
      "inputs": [
        {
          "internalType": "uint256",
          "name": "_amount",
          "type": "uint256"
        }
      ],
      "name": "startContract",
      "outputs": [],
      "stateMutability": "payable",
      "type": "function"
    },
    {
      "inputs": [],
      "name": "tokenTimeLock",
      "outputs": [
        {
          "internalType": "contract TokenTimelock",
          "name": "",
          "type": "address"
        }
      ],
      "stateMutability": "view",
      "type": "function"
    },
    {
      "inputs": [
        {
          "internalType": "address",
          "name": "",
          "type": "address"
        }
      ],
      "name": "whiteList",
      "outputs": [
        {
          "internalType": "bool",
          "name": "",
          "type": "bool"
        }
      ],
      "stateMutability": "view",
      "type": "function"
    }
  ],
  "bytecode": {
    "object": "0x60c06040523480156200001157600080fd5b506040516200189838038062001898833981016040819052620000349162000214565b6001600160a01b038316620000905760405162461bcd60e51b815260206004820181905260248201527f45524332303a7472616e736665722066726f6d207a65726f206164647265737360448201526064015b60405180910390fd5b60008411620000e25760405162461bcd60e51b815260206004820152601960248201527f43616e6e6f74207472616e736665722030206f72206c65737300000000000000604482015260640162000087565b818386604051620000f390620001ed565b6001600160a01b0393841681529290911660208301526040820152606001604051809103906000f0801580156200012e573d6000803e3d6000fd5b50600280546001600160a01b03199081166001600160a01b03938416179091559316600081815260208181526040808320805460ff1990811660019081179092557fcc69885fda6bcc1a4ace058b4a62bf5e179ea78fd58a1ccd71c22cc9b688792f80548a169096179095553380855291842080549095168117909455918052919091527fa6eef7e35abe7026729641147f7915573c7e97b47efa546f5f6e3230263bcb498054909416179092555060ff166080525060a05262000281565b6107ca80620010ce83390190565b6001600160a01b03811681146200021157600080fd5b50565b600080600080600060a086880312156200022d57600080fd5b855194506020860151935060408601516200024881620001fb565b60608701519093506200025b81620001fb565b608087015190925060ff811681146200027357600080fd5b809150509295509295909350565b60805160a051610def620002df60003960008181610362015281816103c40152818161042101528181610467015281816104e40152818161052f01526105a4015260008181610394015281816104b401526105740152610def6000f3fe6080604052600436106100915760003560e01c806369d895751161005957806369d895751461015b57806381a219de14610170578063832880e714610183578063d321fe2914610198578063e7f8e6e5146101bb57600080fd5b80630ee2cb10146100965780631a2c8cb7146100c8578063372c12b1146100dd5780633b48763c1461011d578063682b08bb14610125575b600080fd5b3480156100a257600080fd5b506100ab6101db565b6040516001600160a01b0390911681526020015b60405180910390f35b6100db6100d6366004610bd7565b61024e565b005b3480156100e957600080fd5b5061010d6100f8366004610c05565b60006020819052908152604090205460ff1681565b60405190151581526020016100bf565b6100db61028e565b34801561013157600080fd5b506100ab610140366004610c37565b6001602052600090815260409020546001600160a01b031681565b34801561016757600080fd5b506100db61032c565b6100db61017e366004610bd7565b6105d7565b34801561018f57600080fd5b506100ab61071c565b3480156101a457600080fd5b506101ad610753565b6040519081526020016100bf565b3480156101c757600080fd5b506002546100ab906001600160a01b031681565b600254604080516338af3eed60e01b815290516000926001600160a01b0316916338af3eed9160048083019260209291908290030181865afa158015610225573d6000803e3d6000fd5b505050506040513d601f19601f820116820180604052508101906102499190610c54565b905090565b3360009081526020819052604090205460ff16151560011461028b5760405162461bcd60e51b815260040161028290610c71565b60405180910390fd5b50565b3360009081526020819052604090205460ff1615156001146102c25760405162461bcd60e51b815260040161028290610c71565b600260009054906101000a90046001600160a01b03166001600160a01b03166386d1a69f6040518163ffffffff1660e01b8152600401600060405180830381600087803b15801561031257600080fd5b505af1158015610326573d6000803e3d6000fd5b50505050565b3360009081526020819052604090205460ff1615156001146103605760405162461bcd60e51b815260040161028290610c71565b7f00000000000000000000000000000000000000000000000000000000000000004211156103925761039061028e565b565b7f000000000000000000000000000000000000000000000000000000000000000060ff166004036104b25760046103ea7f00000000000000000000000000000000000000000000000000000000000000006003610caf565b6103f49190610cce565b42111561041a576104126004610408610753565b6100d69190610cce565b61039061028e565b60046104477f00000000000000000000000000000000000000000000000000000000000000006002610caf565b6104519190610cce565b4211156104605761039061082e565b61048b60047f0000000000000000000000000000000000000000000000000000000000000000610cce565b4211156104aa57610412600461049f610753565b610408906003610caf565b61039061083b565b7f000000000000000000000000000000000000000000000000000000000000000060ff1660030361057257600361050a7f00000000000000000000000000000000000000000000000000000000000000006002610caf565b6105149190610cce565b421115610528576104126003610408610753565b61055360037f0000000000000000000000000000000000000000000000000000000000000000610cce565b4211156104aa576104126003610567610753565b610408906002610caf565b7f000000000000000000000000000000000000000000000000000000000000000060ff16600203610390576105c860027f0000000000000000000000000000000000000000000000000000000000000000610cce565b4211156104aa5761039061082e565b3360009081526020819052604090205460ff16151560011461060b5760405162461bcd60e51b815260040161028290610c71565b60025460408051637e062a3560e11b8152905161068e926001600160a01b0316918491839163fc0c546a9160048083019260209291908290030181865afa15801561065a573d6000803e3d6000fd5b505050506040513d601f19601f8201168201806040525081019061067e9190610c54565b6001600160a01b03169190610853565b61028b61069961071c565b60025460408051637e062a3560e11b815290516001600160a01b03909216918591839163fc0c546a916004808201926020929091908290030181865afa1580156106e7573d6000803e3d6000fd5b505050506040513d601f19601f8201168201806040525081019061070b9190610c54565b6001600160a01b0316929190610938565b6000805260016020527fa6eef7e35abe7026729641147f7915573c7e97b47efa546f5f6e3230263bcb49546001600160a01b031690565b60025460408051637e062a3560e11b815290516000926001600160a01b03169163fc0c546a9160048083019260209291908290030181865afa15801561079d573d6000803e3d6000fd5b505050506040513d601f19601f820116820180604052508101906107c19190610c54565b6002546040516370a0823160e01b81526001600160a01b0391821660048201529116906370a0823190602401602060405180830381865afa15801561080a573d6000803e3d6000fd5b505050506040513d601f19601f820116820180604052508101906102499190610cf0565b6104126002610408610753565b6104126014610848610753565b610408906013610caf565b604051636eb1769f60e11b81523060048201526001600160a01b038381166024830152600091839186169063dd62ed3e90604401602060405180830381865afa1580156108a4573d6000803e3d6000fd5b505050506040513d601f19601f820116820180604052508101906108c89190610cf0565b6108d29190610d09565b6040516001600160a01b03851660248201526044810182905290915061032690859063095ea7b360e01b906064015b60408051601f198184030181529190526020810180516001600160e01b03166001600160e01b031990931692909217909152610970565b6040516001600160a01b03808516602483015283166044820152606481018290526103269085906323b872dd60e01b90608401610901565b60006109c5826040518060400160405280602081526020017f5361666545524332303a206c6f772d6c6576656c2063616c6c206661696c6564815250856001600160a01b0316610a479092919063ffffffff16565b805190915015610a4257808060200190518101906109e39190610d21565b610a425760405162461bcd60e51b815260206004820152602a60248201527f5361666545524332303a204552433230206f7065726174696f6e20646964206e6044820152691bdd081cdd58d8d9595960b21b6064820152608401610282565b505050565b6060610a568484600085610a5e565b949350505050565b606082471015610abf5760405162461bcd60e51b815260206004820152602660248201527f416464726573733a20696e73756666696369656e742062616c616e636520666f6044820152651c8818d85b1b60d21b6064820152608401610282565b600080866001600160a01b03168587604051610adb9190610d6a565b60006040518083038185875af1925050503d8060008114610b18576040519150601f19603f3d011682016040523d82523d6000602084013e610b1d565b606091505b5091509150610b2e87838387610b39565b979650505050505050565b60608315610ba8578251600003610ba1576001600160a01b0385163b610ba15760405162461bcd60e51b815260206004820152601d60248201527f416464726573733a2063616c6c20746f206e6f6e2d636f6e74726163740000006044820152606401610282565b5081610a56565b610a568383815115610bbd5781518083602001fd5b8060405162461bcd60e51b81526004016102829190610d86565b600060208284031215610be957600080fd5b5035919050565b6001600160a01b038116811461028b57600080fd5b600060208284031215610c1757600080fd5b8135610c2281610bf0565b9392505050565b801515811461028b57600080fd5b600060208284031215610c4957600080fd5b8135610c2281610c29565b600060208284031215610c6657600080fd5b8151610c2281610bf0565b6020808252600e908201526d13db9b1e4815da1a5d19531a5cdd60921b604082015260600190565b634e487b7160e01b600052601160045260246000fd5b6000816000190483118215151615610cc957610cc9610c99565b500290565b600082610ceb57634e487b7160e01b600052601260045260246000fd5b500490565b600060208284031215610d0257600080fd5b5051919050565b60008219821115610d1c57610d1c610c99565b500190565b600060208284031215610d3357600080fd5b8151610c2281610c29565b60005b83811015610d59578181015183820152602001610d41565b838111156103265750506000910152565b60008251610d7c818460208701610d3e565b9190910192915050565b6020815260008251806020840152610da5816040850160208701610d3e565b601f01601f1916919091016040019291505056fea2646970667358221220f16195f854a69ca28914870fa0df2ec33b32898fff2c310905e5e93c86ca5daa64736f6c634300080d003360e060405234801561001057600080fd5b506040516107ca3803806107ca83398101604081905261002f916100d0565b42811161009d5760405162461bcd60e51b815260206004820152603260248201527f546f6b656e54696d656c6f636b3a2072656c656173652074696d65206973206260448201527165666f72652063757272656e742074696d6560701b606482015260840160405180910390fd5b6001600160a01b03928316608052911660a05260c052610113565b6001600160a01b03811681146100cd57600080fd5b50565b6000806000606084860312156100e557600080fd5b83516100f0816100b8565b6020850151909350610101816100b8565b80925050604084015190509250925092565b60805160a05160c05161067061015a60003960008181609f015260f00152600081816053015261029801526000818160ca01528181610182015261027601526106706000f3fe608060405234801561001057600080fd5b506004361061004c5760003560e01c806338af3eed1461005157806386d1a69f14610090578063b91d40011461009a578063fc0c546a146100c8575b600080fd5b7f00000000000000000000000000000000000000000000000000000000000000005b6040516001600160a01b0390911681526020015b60405180910390f35b6100986100ee565b005b6040517f00000000000000000000000000000000000000000000000000000000000000008152602001610087565b7f0000000000000000000000000000000000000000000000000000000000000000610073565b7f000000000000000000000000000000000000000000000000000000000000000042101561017e5760405162461bcd60e51b815260206004820152603260248201527f546f6b656e54696d656c6f636b3a2063757272656e742074696d65206973206260448201527165666f72652072656c656173652074696d6560701b60648201526084015b60405180910390fd5b60007f00000000000000000000000000000000000000000000000000000000000000006040516370a0823160e01b81523060048201526001600160a01b0391909116906370a0823190602401602060405180830381865afa1580156101e7573d6000803e3d6000fd5b505050506040513d601f19601f8201168201806040525081019061020b9190610579565b9050600081116102695760405162461bcd60e51b815260206004820152602360248201527f546f6b656e54696d656c6f636b3a206e6f20746f6b656e7320746f2072656c6560448201526261736560e81b6064820152608401610175565b6102bd6001600160a01b037f0000000000000000000000000000000000000000000000000000000000000000167f0000000000000000000000000000000000000000000000000000000000000000836102c0565b50565b604080516001600160a01b038416602482015260448082018490528251808303909101815260649091019091526020810180516001600160e01b031663a9059cbb60e01b179052610312908490610317565b505050565b600061036c826040518060400160405280602081526020017f5361666545524332303a206c6f772d6c6576656c2063616c6c206661696c6564815250856001600160a01b03166103e99092919063ffffffff16565b805190915015610312578080602001905181019061038a9190610592565b6103125760405162461bcd60e51b815260206004820152602a60248201527f5361666545524332303a204552433230206f7065726174696f6e20646964206e6044820152691bdd081cdd58d8d9595960b21b6064820152608401610175565b60606103f88484600085610400565b949350505050565b6060824710156104615760405162461bcd60e51b815260206004820152602660248201527f416464726573733a20696e73756666696369656e742062616c616e636520666f6044820152651c8818d85b1b60d21b6064820152608401610175565b600080866001600160a01b0316858760405161047d91906105eb565b60006040518083038185875af1925050503d80600081146104ba576040519150601f19603f3d011682016040523d82523d6000602084013e6104bf565b606091505b50915091506104d0878383876104db565b979650505050505050565b6060831561054a578251600003610543576001600160a01b0385163b6105435760405162461bcd60e51b815260206004820152601d60248201527f416464726573733a2063616c6c20746f206e6f6e2d636f6e74726163740000006044820152606401610175565b50816103f8565b6103f8838381511561055f5781518083602001fd5b8060405162461bcd60e51b81526004016101759190610607565b60006020828403121561058b57600080fd5b5051919050565b6000602082840312156105a457600080fd5b815180151581146105b457600080fd5b9392505050565b60005b838110156105d65781810151838201526020016105be565b838111156105e5576000848401525b50505050565b600082516105fd8184602087016105bb565b9190910192915050565b60208152600082518060208401526106268160408501602087016105bb565b601f01601f1916919091016040019291505056fea26469706673582212204870e35215f77399831b3f780438006338b887b956f5dfdee6ed3f524625400c64736f6c634300080d0033",
    "linkReferences": {}
  }
}