{
  "abi": [
    {
      "inputs": [
        {
          "internalType": "uint256",
          "name": "_releaseTime",
          "type": "uint256"
        },
        {
          "internalType": "uint256",
          "name": "amount",
          "type": "uint256"
        },
        {
          "internalType": "address",
          "name": "_creator",
          "type": "address"
        },
        {
          "internalType": "contract IERC20",
          "name": "_tokens",
          "type": "address"
        },
        {
          "internalType": "uint8",
          "name": "_deadlineInterval",
          "type": "uint8"
        }
      ],
      "stateMutability": "nonpayable",
      "type": "constructor"
    },
    {
      "inputs": [],
      "name": "getAmount",
      "outputs": [
        {
          "internalType": "uint256",
          "name": "",
          "type": "uint256"
        }
      ],
      "stateMutability": "view",
      "type": "function"
    },
    {
      "inputs": [],
      "name": "getCreator",
      "outputs": [
        {
          "internalType": "address",
          "name": "",
          "type": "address"
        }
      ],
      "stateMutability": "view",
      "type": "function"
    },
    {
      "inputs": [],
      "name": "getReleaseTime",
      "outputs": [
        {
          "internalType": "uint256",
          "name": "",
          "type": "uint256"
        }
      ],
      "stateMutability": "view",
      "type": "function"
    },
    {
      "inputs": [],
      "name": "getToken",
      "outputs": [
        {
          "internalType": "contract IERC20",
          "name": "",
          "type": "address"
        }
      ],
      "stateMutability": "view",
      "type": "function"
    },
    {
      "inputs": [],
      "name": "getUser",
      "outputs": [
        {
          "internalType": "address",
          "name": "",
          "type": "address"
        }
      ],
      "stateMutability": "view",
      "type": "function"
    },
    {
      "inputs": [],
      "name": "releaseFunds",
      "outputs": [],
      "stateMutability": "nonpayable",
      "type": "function"
    },
    {
      "inputs": [],
      "name": "releaseToCreator",
      "outputs": [],
      "stateMutability": "payable",
      "type": "function"
    },
    {
      "inputs": [
        {
          "internalType": "uint256",
          "name": "amount",
          "type": "uint256"
        }
      ],
      "name": "releaseToUser",
      "outputs": [],
      "stateMutability": "payable",
      "type": "function"
    },
    {
      "inputs": [
        {
          "internalType": "uint256",
          "name": "_amount",
          "type": "uint256"
        }
      ],
      "name": "startContract",
      "outputs": [],
      "stateMutability": "payable",
      "type": "function"
    }
  ],
  "bytecode": {
    "object": "0x610100604052732791bca1f2de4661ed88a30c99a7a9449aa8417460e05234801561002957600080fd5b5060405161140738038061140783398101604081905261004891610197565b6001600160a01b0383166100a35760405162461bcd60e51b815260206004820181905260248201527f45524332303a7472616e736665722066726f6d207a65726f206164647265737360448201526064015b60405180910390fd5b600084116100f35760405162461bcd60e51b815260206004820152601960248201527f43616e6e6f74207472616e736665722030206f72206c65737300000000000000604482015260640161009a565b81838660405161010290610175565b6001600160a01b0393841681529290911660208301526040820152606001604051809103906000f08015801561013c573d6000803e3d6000fd5b50600080546001600160a01b0319166001600160a01b03929092169190911790553360c05260ff1660805250505060a0526101fe565b50565b6107ca80610c3d83390190565b6001600160a01b038116811461017257600080fd5b600080600080600060a086880312156101af57600080fd5b855194506020860151935060408601516101c881610182565b60608701519093506101d981610182565b608087015190925060ff811681146101f057600080fd5b809150509295509295909350565b60805160a05160c05160e0516109c7610276600039600061083f015260008181610147015261028201526000818161053b0152818161059d015281816105fa01528181610640015281816106bd01528181610708015261077d01526000818161056d0152818161068d015261074d01526109c76000f3fe6080604052600436106100865760003560e01c806353462d6b1161005957806353462d6b146100ef57806369d895751461011257806381a219de14610127578063832880e714610138578063d321fe291461016b57600080fd5b80630ee2cb101461008b5780631a2c8cb7146100bd57806321df0da7146100d25780633b48763c146100e7575b600080fd5b34801561009757600080fd5b506100a0610180565b6040516001600160a01b0390911681526020015b60405180910390f35b6100d06100cb3660046108b5565b6101fd565b005b3480156100de57600080fd5b506100a0610316565b6100d061036a565b3480156100fb57600080fd5b506101046103c5565b6040519081526020016100b4565b34801561011e57600080fd5b506100d061043d565b6100d06101353660046108b5565b50565b34801561014457600080fd5b507f00000000000000000000000000000000000000000000000000000000000000006100a0565b34801561017757600080fd5b506101046107b0565b60008060009054906101000a90046001600160a01b03166001600160a01b03166338af3eed6040518163ffffffff1660e01b8152600401602060405180830381865afa1580156101d4573d6000803e3d6000fd5b505050506040513d601f19601f820116820180604052508101906101f891906108e3565b905090565b60008054906101000a90046001600160a01b03166001600160a01b031663fc0c546a6040518163ffffffff1660e01b8152600401602060405180830381865afa15801561024e573d6000803e3d6000fd5b505050506040513d601f19601f8201168201806040525081019061027291906108e3565b6001600160a01b031663a9059cbb7f00000000000000000000000000000000000000000000000000000000000000006040516001600160e01b031960e084901b1681526001600160a01b039091166004820152602481018490526044016020604051808303816000875af11580156102ee573d6000803e3d6000fd5b505050506040513d601f19601f820116820180604052508101906103129190610907565b5050565b60008060009054906101000a90046001600160a01b03166001600160a01b031663fc0c546a6040518163ffffffff1660e01b8152600401602060405180830381865afa1580156101d4573d6000803e3d6000fd5b60008054604080516386d1a69f60e01b815290516001600160a01b03909216926386d1a69f9260048084019382900301818387803b1580156103ab57600080fd5b505af11580156103bf573d6000803e3d6000fd5b50505050565b60008060009054906101000a90046001600160a01b03166001600160a01b031663b91d40016040518163ffffffff1660e01b8152600401602060405180830381865afa158015610419573d6000803e3d6000fd5b505050506040513d601f19601f820116820180604052508101906101f89190610929565b306001600160a01b031663832880e76040518163ffffffff1660e01b8152600401602060405180830381865afa15801561047b573d6000803e3d6000fd5b505050506040513d601f19601f8201168201806040525081019061049f91906108e3565b6001600160a01b0316336001600160a01b031614806105305750306001600160a01b0316630ee2cb106040518163ffffffff1660e01b8152600401602060405180830381865afa1580156104f7573d6000803e3d6000fd5b505050506040513d601f19601f8201168201806040525081019061051b91906108e3565b6001600160a01b0316336001600160a01b0316145b61053957600080fd5b7f000000000000000000000000000000000000000000000000000000000000000042111561056b5761056961036a565b565b7f000000000000000000000000000000000000000000000000000000000000000060ff1660040361068b5760046105c37f00000000000000000000000000000000000000000000000000000000000000006003610942565b6105cd919061096f565b4211156105f3576105eb60046105e16107b0565b6100cb919061096f565b61056961036a565b60046106207f00000000000000000000000000000000000000000000000000000000000000006002610942565b61062a919061096f565b42111561063957610569610890565b61066460047f000000000000000000000000000000000000000000000000000000000000000061096f565b421115610683576105eb60046106786107b0565b6105e1906003610942565b61056961089d565b7f000000000000000000000000000000000000000000000000000000000000000060ff1660030361074b5760036106e37f00000000000000000000000000000000000000000000000000000000000000006002610942565b6106ed919061096f565b421115610701576105eb60036105e16107b0565b61072c60037f000000000000000000000000000000000000000000000000000000000000000061096f565b421115610683576105eb60036107406107b0565b6105e1906002610942565b7f000000000000000000000000000000000000000000000000000000000000000060ff16600203610569576107a160027f000000000000000000000000000000000000000000000000000000000000000061096f565b42111561068357610569610890565b60008060009054906101000a90046001600160a01b03166001600160a01b031663fc0c546a6040518163ffffffff1660e01b8152600401602060405180830381865afa158015610804573d6000803e3d6000fd5b505050506040513d601f19601f8201168201806040525081019061082891906108e3565b6040516370a0823160e01b81526001600160a01b037f00000000000000000000000000000000000000000000000000000000000000008116600483015291909116906370a0823190602401602060405180830381865afa158015610419573d6000803e3d6000fd5b6105eb60026105e16107b0565b6105eb60146108aa6107b0565b6105e1906013610942565b6000602082840312156108c757600080fd5b5035919050565b6001600160a01b038116811461013557600080fd5b6000602082840312156108f557600080fd5b8151610900816108ce565b9392505050565b60006020828403121561091957600080fd5b8151801515811461090057600080fd5b60006020828403121561093b57600080fd5b5051919050565b600081600019048311821515161561096a57634e487b7160e01b600052601160045260246000fd5b500290565b60008261098c57634e487b7160e01b600052601260045260246000fd5b50049056fea264697066735822122012f4fa48c557d66570af8a8e0cd8b3f20c332884f090a47d97585820b6e732fd64736f6c634300080d003360e060405234801561001057600080fd5b506040516107ca3803806107ca83398101604081905261002f916100d0565b42811161009d5760405162461bcd60e51b815260206004820152603260248201527f546f6b656e54696d656c6f636b3a2072656c656173652074696d65206973206260448201527165666f72652063757272656e742074696d6560701b606482015260840160405180910390fd5b6001600160a01b03928316608052911660a05260c052610113565b6001600160a01b03811681146100cd57600080fd5b50565b6000806000606084860312156100e557600080fd5b83516100f0816100b8565b6020850151909350610101816100b8565b80925050604084015190509250925092565b60805160a05160c05161067061015a60003960008181609f015260f00152600081816053015261029801526000818160ca01528181610182015261027601526106706000f3fe608060405234801561001057600080fd5b506004361061004c5760003560e01c806338af3eed1461005157806386d1a69f14610090578063b91d40011461009a578063fc0c546a146100c8575b600080fd5b7f00000000000000000000000000000000000000000000000000000000000000005b6040516001600160a01b0390911681526020015b60405180910390f35b6100986100ee565b005b6040517f00000000000000000000000000000000000000000000000000000000000000008152602001610087565b7f0000000000000000000000000000000000000000000000000000000000000000610073565b7f000000000000000000000000000000000000000000000000000000000000000042101561017e5760405162461bcd60e51b815260206004820152603260248201527f546f6b656e54696d656c6f636b3a2063757272656e742074696d65206973206260448201527165666f72652072656c656173652074696d6560701b60648201526084015b60405180910390fd5b60007f00000000000000000000000000000000000000000000000000000000000000006040516370a0823160e01b81523060048201526001600160a01b0391909116906370a0823190602401602060405180830381865afa1580156101e7573d6000803e3d6000fd5b505050506040513d601f19601f8201168201806040525081019061020b9190610579565b9050600081116102695760405162461bcd60e51b815260206004820152602360248201527f546f6b656e54696d656c6f636b3a206e6f20746f6b656e7320746f2072656c6560448201526261736560e81b6064820152608401610175565b6102bd6001600160a01b037f0000000000000000000000000000000000000000000000000000000000000000167f0000000000000000000000000000000000000000000000000000000000000000836102c0565b50565b604080516001600160a01b038416602482015260448082018490528251808303909101815260649091019091526020810180516001600160e01b031663a9059cbb60e01b179052610312908490610317565b505050565b600061036c826040518060400160405280602081526020017f5361666545524332303a206c6f772d6c6576656c2063616c6c206661696c6564815250856001600160a01b03166103e99092919063ffffffff16565b805190915015610312578080602001905181019061038a9190610592565b6103125760405162461bcd60e51b815260206004820152602a60248201527f5361666545524332303a204552433230206f7065726174696f6e20646964206e6044820152691bdd081cdd58d8d9595960b21b6064820152608401610175565b60606103f88484600085610400565b949350505050565b6060824710156104615760405162461bcd60e51b815260206004820152602660248201527f416464726573733a20696e73756666696369656e742062616c616e636520666f6044820152651c8818d85b1b60d21b6064820152608401610175565b600080866001600160a01b0316858760405161047d91906105eb565b60006040518083038185875af1925050503d80600081146104ba576040519150601f19603f3d011682016040523d82523d6000602084013e6104bf565b606091505b50915091506104d0878383876104db565b979650505050505050565b6060831561054a578251600003610543576001600160a01b0385163b6105435760405162461bcd60e51b815260206004820152601d60248201527f416464726573733a2063616c6c20746f206e6f6e2d636f6e74726163740000006044820152606401610175565b50816103f8565b6103f8838381511561055f5781518083602001fd5b8060405162461bcd60e51b81526004016101759190610607565b60006020828403121561058b57600080fd5b5051919050565b6000602082840312156105a457600080fd5b815180151581146105b457600080fd5b9392505050565b60005b838110156105d65781810151838201526020016105be565b838111156105e5576000848401525b50505050565b600082516105fd8184602087016105bb565b9190910192915050565b60208152600082518060208401526106268160408501602087016105bb565b601f01601f1916919091016040019291505056fea26469706673582212203643ef71ff3c710c1013505edb9787b70dc63c09e03347a13e643f354797000864736f6c634300080d0033",
    "linkReferences": {}
  }
}