{
  "abi": [
    {
      "inputs": [
        {
          "internalType": "uint256",
          "name": "_releaseTime",
          "type": "uint256"
        },
        {
          "internalType": "uint256",
          "name": "amount",
          "type": "uint256"
        },
        {
          "internalType": "address",
          "name": "_creator",
          "type": "address"
        },
        {
          "internalType": "contract IERC20",
          "name": "_tokens",
          "type": "address"
        },
        {
          "internalType": "uint8",
          "name": "_deadlineInterval",
          "type": "uint8"
        }
      ],
      "stateMutability": "nonpayable",
      "type": "constructor"
    },
    {
      "inputs": [],
      "name": "getAmount",
      "outputs": [
        {
          "internalType": "uint256",
          "name": "",
          "type": "uint256"
        }
      ],
      "stateMutability": "view",
      "type": "function"
    },
    {
      "inputs": [],
      "name": "getCreator",
      "outputs": [
        {
          "internalType": "address",
          "name": "",
          "type": "address"
        }
      ],
      "stateMutability": "view",
      "type": "function"
    },
    {
      "inputs": [],
      "name": "getReleaseTime",
      "outputs": [
        {
          "internalType": "uint256",
          "name": "",
          "type": "uint256"
        }
      ],
      "stateMutability": "view",
      "type": "function"
    },
    {
      "inputs": [],
      "name": "getToken",
      "outputs": [
        {
          "internalType": "contract IERC20",
          "name": "",
          "type": "address"
        }
      ],
      "stateMutability": "view",
      "type": "function"
    },
    {
      "inputs": [],
      "name": "getUser",
      "outputs": [
        {
          "internalType": "address",
          "name": "",
          "type": "address"
        }
      ],
      "stateMutability": "view",
      "type": "function"
    },
    {
      "inputs": [],
      "name": "releaseFunds",
      "outputs": [],
      "stateMutability": "nonpayable",
      "type": "function"
    }
  ],
  "bytecode": {
    "object": "0x610100604052600080546001600160a01b031916732791bca1f2de4661ed88a30c99a7a9449aa8417417905534801561003757600080fd5b5060405161150a38038061150a83398101604081905261005691610224565b6001600160a01b0383166100b15760405162461bcd60e51b815260206004820181905260248201527f45524332303a7472616e736665722066726f6d207a65726f206164647265737360448201526064015b60405180910390fd5b600084116101015760405162461bcd60e51b815260206004820152601b60248201527f43616e6e6f74207472616e73666572206c657373207468616e2030000000000060448201526064016100a8565b818386604051610110906101ff565b6001600160a01b0393841681529290911660208301526040820152606001604051809103906000f08015801561014a573d6000803e3d6000fd5b50600180546001600160a01b0319166001600160a01b039283161790553360c081905260ff831660805260a0879052600054821660e08190526040516323b872dd60e01b81526004810192909252602482015260448101869052908316906323b872dd906064016020604051808303816000875af11580156101d0573d6000803e3d6000fd5b505050506040513d601f19601f820116820180604052508101906101f4919061028b565b5050505050506102b4565b6107ca80610d4083390190565b6001600160a01b038116811461022157600080fd5b50565b600080600080600060a0868803121561023c57600080fd5b855194506020860151935060408601516102558161020c565b60608701519093506102668161020c565b608087015190925060ff8116811461027d57600080fd5b809150509295509295909350565b60006020828403121561029d57600080fd5b815180151581146102ad57600080fd5b9392505050565b60805160a05160c05160e051610a0e6103326000396000818161048b015261064001526000818160b6015261066101526000818161030b015281816103cd0152818161070a015281816107470152818161079f015281816107dc015261083201526000818161039d0152818161076f01526108020152610a0e6000f3fe608060405234801561001057600080fd5b50600436106100625760003560e01c80630ee2cb101461006757806321df0da71461008c57806353462d6b1461009457806369d89575146100aa578063832880e7146100b4578063d321fe29146100da575b600080fd5b61006f6100e2565b6040516001600160a01b0390911681526020015b60405180910390f35b61006f610155565b61009c61019f565b604051908152602001610083565b6100b261020d565b005b7f000000000000000000000000000000000000000000000000000000000000000061006f565b61009c610861565b600154604080516338af3eed60e01b815290516000926001600160a01b0316916338af3eed9160048083019260209291908290030181865afa15801561012c573d6000803e3d6000fd5b505050506040513d601f19601f82011682018060405250810190610150919061092a565b905090565b60015460408051637e062a3560e11b815290516000926001600160a01b03169163fc0c546a9160048083019260209291908290030181865afa15801561012c573d6000803e3d6000fd5b6001546040805163b91d400160e01b815290516000926001600160a01b03169163b91d40019160048083019260209291908290030181865afa1580156101e9573d6000803e3d6000fd5b505050506040513d601f19601f82011682018060405250810190610150919061094e565b306001600160a01b031663832880e76040518163ffffffff1660e01b8152600401602060405180830381865afa15801561024b573d6000803e3d6000fd5b505050506040513d601f19601f8201168201806040525081019061026f919061092a565b6001600160a01b0316336001600160a01b031614806103005750306001600160a01b0316630ee2cb106040518163ffffffff1660e01b8152600401602060405180830381865afa1580156102c7573d6000803e3d6000fd5b505050506040513d601f19601f820116820180604052508101906102eb919061092a565b6001600160a01b0316336001600160a01b0316145b61030957600080fd5b7f000000000000000000000000000000000000000000000000000000000000000042111561039b57600160009054906101000a90046001600160a01b03166001600160a01b03166386d1a69f6040518163ffffffff1660e01b8152600401600060405180830381600087803b15801561038157600080fd5b505af1158015610395573d6000803e3d6000fd5b50505050565b7f000000000000000000000000000000000000000000000000000000000000000060ff1660040361076d5760046103f37f00000000000000000000000000000000000000000000000000000000000000006003610967565b6103fd9190610994565b42111561070357600160009054906101000a90046001600160a01b03166001600160a01b031663fc0c546a6040518163ffffffff1660e01b8152600401602060405180830381865afa158015610457573d6000803e3d6000fd5b505050506040513d601f19601f8201168201806040525081019061047b919061092a565b6001600160a01b03166323b872dd7f0000000000000000000000000000000000000000000000000000000000000000600160009054906101000a90046001600160a01b03166001600160a01b03166338af3eed6040518163ffffffff1660e01b8152600401602060405180830381865afa1580156104fd573d6000803e3d6000fd5b505050506040513d601f19601f82011682018060405250810190610521919061092a565b600461052b610861565b610536906003610967565b6105409190610994565b6040516001600160e01b031960e086901b1681526001600160a01b03938416600482015292909116602483015260448201526064016020604051808303816000875af1158015610594573d6000803e3d6000fd5b505050506040513d601f19601f820116820180604052508101906105b891906109b6565b50600160009054906101000a90046001600160a01b03166001600160a01b031663fc0c546a6040518163ffffffff1660e01b8152600401602060405180830381865afa15801561060c573d6000803e3d6000fd5b505050506040513d601f19601f82011682018060405250810190610630919061092a565b6001600160a01b03166323b872dd7f00000000000000000000000000000000000000000000000000000000000000007f0000000000000000000000000000000000000000000000000000000000000000610688610861565b6040516001600160e01b031960e086901b1681526001600160a01b03938416600482015292909116602483015260448201526064016020604051808303816000875af11580156106dc573d6000803e3d6000fd5b505050506040513d601f19601f8201168201806040525081019061070091906109b6565b50565b60046107307f00000000000000000000000000000000000000000000000000000000000000006002610967565b61073a9190610994565b421161076b5761070060047f0000000000000000000000000000000000000000000000000000000000000000610994565b565b7f000000000000000000000000000000000000000000000000000000000000000060ff166003036108005760036107c57f00000000000000000000000000000000000000000000000000000000000000006002610967565b6107cf9190610994565b421161076b5761070060037f0000000000000000000000000000000000000000000000000000000000000000610994565b7f000000000000000000000000000000000000000000000000000000000000000060ff1660020361076b5761085660027f0000000000000000000000000000000000000000000000000000000000000000610994565b421161076b5761076b565b60015460408051637e062a3560e11b815290516000926001600160a01b03169163fc0c546a9160048083019260209291908290030181865afa1580156108ab573d6000803e3d6000fd5b505050506040513d601f19601f820116820180604052508101906108cf919061092a565b6040516370a0823160e01b81523060048201526001600160a01b0391909116906370a0823190602401602060405180830381865afa1580156101e9573d6000803e3d6000fd5b6001600160a01b038116811461070057600080fd5b60006020828403121561093c57600080fd5b815161094781610915565b9392505050565b60006020828403121561096057600080fd5b5051919050565b600081600019048311821515161561098f57634e487b7160e01b600052601160045260246000fd5b500290565b6000826109b157634e487b7160e01b600052601260045260246000fd5b500490565b6000602082840312156109c857600080fd5b8151801515811461094757600080fdfea264697066735822122035c718300dada60ca1d874c9476a0564855a7657a0e111e3746546f61b13722f64736f6c634300080d003360e060405234801561001057600080fd5b506040516107ca3803806107ca83398101604081905261002f916100d0565b42811161009d5760405162461bcd60e51b815260206004820152603260248201527f546f6b656e54696d656c6f636b3a2072656c656173652074696d65206973206260448201527165666f72652063757272656e742074696d6560701b606482015260840160405180910390fd5b6001600160a01b03928316608052911660a05260c052610113565b6001600160a01b03811681146100cd57600080fd5b50565b6000806000606084860312156100e557600080fd5b83516100f0816100b8565b6020850151909350610101816100b8565b80925050604084015190509250925092565b60805160a05160c05161067061015a60003960008181609f015260f00152600081816053015261029801526000818160ca01528181610182015261027601526106706000f3fe608060405234801561001057600080fd5b506004361061004c5760003560e01c806338af3eed1461005157806386d1a69f14610090578063b91d40011461009a578063fc0c546a146100c8575b600080fd5b7f00000000000000000000000000000000000000000000000000000000000000005b6040516001600160a01b0390911681526020015b60405180910390f35b6100986100ee565b005b6040517f00000000000000000000000000000000000000000000000000000000000000008152602001610087565b7f0000000000000000000000000000000000000000000000000000000000000000610073565b7f000000000000000000000000000000000000000000000000000000000000000042101561017e5760405162461bcd60e51b815260206004820152603260248201527f546f6b656e54696d656c6f636b3a2063757272656e742074696d65206973206260448201527165666f72652072656c656173652074696d6560701b60648201526084015b60405180910390fd5b60007f00000000000000000000000000000000000000000000000000000000000000006040516370a0823160e01b81523060048201526001600160a01b0391909116906370a0823190602401602060405180830381865afa1580156101e7573d6000803e3d6000fd5b505050506040513d601f19601f8201168201806040525081019061020b9190610579565b9050600081116102695760405162461bcd60e51b815260206004820152602360248201527f546f6b656e54696d656c6f636b3a206e6f20746f6b656e7320746f2072656c6560448201526261736560e81b6064820152608401610175565b6102bd6001600160a01b037f0000000000000000000000000000000000000000000000000000000000000000167f0000000000000000000000000000000000000000000000000000000000000000836102c0565b50565b604080516001600160a01b038416602482015260448082018490528251808303909101815260649091019091526020810180516001600160e01b031663a9059cbb60e01b179052610312908490610317565b505050565b600061036c826040518060400160405280602081526020017f5361666545524332303a206c6f772d6c6576656c2063616c6c206661696c6564815250856001600160a01b03166103e99092919063ffffffff16565b805190915015610312578080602001905181019061038a9190610592565b6103125760405162461bcd60e51b815260206004820152602a60248201527f5361666545524332303a204552433230206f7065726174696f6e20646964206e6044820152691bdd081cdd58d8d9595960b21b6064820152608401610175565b60606103f88484600085610400565b949350505050565b6060824710156104615760405162461bcd60e51b815260206004820152602660248201527f416464726573733a20696e73756666696369656e742062616c616e636520666f6044820152651c8818d85b1b60d21b6064820152608401610175565b600080866001600160a01b0316858760405161047d91906105eb565b60006040518083038185875af1925050503d80600081146104ba576040519150601f19603f3d011682016040523d82523d6000602084013e6104bf565b606091505b50915091506104d0878383876104db565b979650505050505050565b6060831561054a578251600003610543576001600160a01b0385163b6105435760405162461bcd60e51b815260206004820152601d60248201527f416464726573733a2063616c6c20746f206e6f6e2d636f6e74726163740000006044820152606401610175565b50816103f8565b6103f8838381511561055f5781518083602001fd5b8060405162461bcd60e51b81526004016101759190610607565b60006020828403121561058b57600080fd5b5051919050565b6000602082840312156105a457600080fd5b815180151581146105b457600080fd5b9392505050565b60005b838110156105d65781810151838201526020016105be565b838111156105e5576000848401525b50505050565b600082516105fd8184602087016105bb565b9190910192915050565b60208152600082518060208401526106268160408501602087016105bb565b601f01601f1916919091016040019291505056fea26469706673582212203643ef71ff3c710c1013505edb9787b70dc63c09e03347a13e643f354797000864736f6c634300080d0033",
    "linkReferences": {}
  }
}