{
  "abi": [
    {
      "inputs": [
        {
          "internalType": "uint256",
          "name": "amount",
          "type": "uint256"
        },
        {
          "internalType": "uint256",
          "name": "_raisedAmount",
          "type": "uint256"
        },
        {
          "internalType": "address",
          "name": "_user",
          "type": "address"
        }
      ],
      "stateMutability": "nonpayable",
      "type": "constructor"
    },
    {
      "inputs": [],
      "name": "callEndContract",
      "outputs": [],
      "stateMutability": "nonpayable",
      "type": "function"
    },
    {
      "inputs": [
        {
          "internalType": "address",
          "name": "_userAddr",
          "type": "address"
        }
      ],
      "name": "checkIfUser",
      "outputs": [
        {
          "internalType": "bool",
          "name": "",
          "type": "bool"
        }
      ],
      "stateMutability": "view",
      "type": "function"
    },
    {
      "inputs": [],
      "name": "checkTimeRemaining",
      "outputs": [
        {
          "internalType": "uint256",
          "name": "",
          "type": "uint256"
        }
      ],
      "stateMutability": "view",
      "type": "function"
    },
    {
      "inputs": [
        {
          "internalType": "bytes",
          "name": "",
          "type": "bytes"
        }
      ],
      "name": "checkUpkeep",
      "outputs": [
        {
          "internalType": "bool",
          "name": "upkeepNeeded",
          "type": "bool"
        },
        {
          "internalType": "bytes",
          "name": "performData",
          "type": "bytes"
        }
      ],
      "stateMutability": "view",
      "type": "function"
    },
    {
      "inputs": [],
      "name": "getCreator",
      "outputs": [
        {
          "internalType": "address",
          "name": "",
          "type": "address"
        }
      ],
      "stateMutability": "view",
      "type": "function"
    },
    {
      "inputs": [],
      "name": "getUser",
      "outputs": [
        {
          "internalType": "address",
          "name": "",
          "type": "address"
        }
      ],
      "stateMutability": "view",
      "type": "function"
    },
    {
      "inputs": [],
      "name": "ierc20",
      "outputs": [
        {
          "internalType": "contract IERC20",
          "name": "",
          "type": "address"
        }
      ],
      "stateMutability": "view",
      "type": "function"
    },
    {
      "inputs": [
        {
          "internalType": "bytes",
          "name": "",
          "type": "bytes"
        }
      ],
      "name": "performUpkeep",
      "outputs": [],
      "stateMutability": "nonpayable",
      "type": "function"
    },
    {
      "inputs": [
        {
          "internalType": "address",
          "name": "_creatorAddr",
          "type": "address"
        },
        {
          "internalType": "uint256",
          "name": "_duration",
          "type": "uint256"
        }
      ],
      "name": "startContract",
      "outputs": [],
      "stateMutability": "nonpayable",
      "type": "function"
    }
  ],
  "bytecode": {
    "object": "0x60c060405234801561001057600080fd5b50604051610df9380380610df983398101604081905261002f91610044565b6001600160a01b031660a0526080525061008a565b60008060006060848603121561005957600080fd5b83516020850151604086015191945092506001600160a01b038116811461007f57600080fd5b809150509250925092565b60805160a051610d386100c160003960008181610119015281816101bf0152818161029a01526102eb015260005050610d386000f3fe608060405234801561001057600080fd5b50600436106100935760003560e01c8063832880e711610066578063832880e714610117578063bf0ae63d1461013d578063c6c6d29214610150578063f65861c314610163578063facda8131461018657600080fd5b80630ee2cb101461009857806340c6ed97146100c25780634585e33b146100d85780636e04ff0d146100ed575b600080fd5b6005546001600160a01b03165b6040516001600160a01b0390911681526020015b60405180910390f35b6100ca61018e565b6040519081526020016100b9565b6100eb6100e636600461039d565b6101a3565b005b6101096100fb36600461039d565b505060035442101590606090565b6040516100b992919061040f565b7f00000000000000000000000000000000000000000000000000000000000000006100a5565b6006546100a5906001600160a01b031681565b6100eb61015e366004610485565b6101ba565b6101766101713660046104af565b610296565b60405190151581526020016100b9565b6100eb6102e6565b60004260035461019e91906104e7565b905090565b60035442106101b6576101b6600061036b565b5050565b6101e37f0000000000000000000000000000000000000000000000000000000000000000610296565b50600580546001600160a01b0319166001600160a01b03841617905542600281905560018290556102159082906104fe565b60038190556006546040516001600160a01b0390911691849161023790610390565b6001600160a01b0393841681529290911660208301526040820152606001604051809103906000f080158015610271573d6000803e3d6000fd5b50600080546001600160a01b0319166001600160a01b03929092169190911790555050565b60007f00000000000000000000000000000000000000000000000000000000000000006001600160a01b0316826001600160a01b0316036102d957506001919050565b506000919050565b919050565b61030f7f0000000000000000000000000000000000000000000000000000000000000000610296565b61035f5760405162461bcd60e51b815260206004820152601c60248201527f596f752063616e6e6f7420656e64207468697320636f6e747261637400000000604482015260640160405180910390fd5b610369600161036b565b565b801561038d5760026001546103809190610516565b6003546101b691906104e7565b50565b6107ca8061053983390190565b600080602083850312156103b057600080fd5b823567ffffffffffffffff808211156103c857600080fd5b818501915085601f8301126103dc57600080fd5b8135818111156103eb57600080fd5b8660208285010111156103fd57600080fd5b60209290920196919550909350505050565b821515815260006020604081840152835180604085015260005b8181101561044557858101830151858201606001528201610429565b81811115610457576000606083870101525b50601f01601f191692909201606001949350505050565b80356001600160a01b03811681146102e157600080fd5b6000806040838503121561049857600080fd5b6104a18361046e565b946020939093013593505050565b6000602082840312156104c157600080fd5b6104ca8261046e565b9392505050565b634e487b7160e01b600052601160045260246000fd5b6000828210156104f9576104f96104d1565b500390565b60008219821115610511576105116104d1565b500190565b60008261053357634e487b7160e01b600052601260045260246000fd5b50049056fe60e060405234801561001057600080fd5b506040516107ca3803806107ca83398101604081905261002f916100d0565b42811161009d5760405162461bcd60e51b815260206004820152603260248201527f546f6b656e54696d656c6f636b3a2072656c656173652074696d65206973206260448201527165666f72652063757272656e742074696d6560701b606482015260840160405180910390fd5b6001600160a01b03928316608052911660a05260c052610113565b6001600160a01b03811681146100cd57600080fd5b50565b6000806000606084860312156100e557600080fd5b83516100f0816100b8565b6020850151909350610101816100b8565b80925050604084015190509250925092565b60805160a05160c05161067061015a60003960008181609f015260f00152600081816053015261029801526000818160ca01528181610182015261027601526106706000f3fe608060405234801561001057600080fd5b506004361061004c5760003560e01c806338af3eed1461005157806386d1a69f14610090578063b91d40011461009a578063fc0c546a146100c8575b600080fd5b7f00000000000000000000000000000000000000000000000000000000000000005b6040516001600160a01b0390911681526020015b60405180910390f35b6100986100ee565b005b6040517f00000000000000000000000000000000000000000000000000000000000000008152602001610087565b7f0000000000000000000000000000000000000000000000000000000000000000610073565b7f000000000000000000000000000000000000000000000000000000000000000042101561017e5760405162461bcd60e51b815260206004820152603260248201527f546f6b656e54696d656c6f636b3a2063757272656e742074696d65206973206260448201527165666f72652072656c656173652074696d6560701b60648201526084015b60405180910390fd5b60007f00000000000000000000000000000000000000000000000000000000000000006040516370a0823160e01b81523060048201526001600160a01b0391909116906370a0823190602401602060405180830381865afa1580156101e7573d6000803e3d6000fd5b505050506040513d601f19601f8201168201806040525081019061020b9190610579565b9050600081116102695760405162461bcd60e51b815260206004820152602360248201527f546f6b656e54696d656c6f636b3a206e6f20746f6b656e7320746f2072656c6560448201526261736560e81b6064820152608401610175565b6102bd6001600160a01b037f0000000000000000000000000000000000000000000000000000000000000000167f0000000000000000000000000000000000000000000000000000000000000000836102c0565b50565b604080516001600160a01b038416602482015260448082018490528251808303909101815260649091019091526020810180516001600160e01b031663a9059cbb60e01b179052610312908490610317565b505050565b600061036c826040518060400160405280602081526020017f5361666545524332303a206c6f772d6c6576656c2063616c6c206661696c6564815250856001600160a01b03166103e99092919063ffffffff16565b805190915015610312578080602001905181019061038a9190610592565b6103125760405162461bcd60e51b815260206004820152602a60248201527f5361666545524332303a204552433230206f7065726174696f6e20646964206e6044820152691bdd081cdd58d8d9595960b21b6064820152608401610175565b60606103f88484600085610400565b949350505050565b6060824710156104615760405162461bcd60e51b815260206004820152602660248201527f416464726573733a20696e73756666696369656e742062616c616e636520666f6044820152651c8818d85b1b60d21b6064820152608401610175565b600080866001600160a01b0316858760405161047d91906105eb565b60006040518083038185875af1925050503d80600081146104ba576040519150601f19603f3d011682016040523d82523d6000602084013e6104bf565b606091505b50915091506104d0878383876104db565b979650505050505050565b6060831561054a578251600003610543576001600160a01b0385163b6105435760405162461bcd60e51b815260206004820152601d60248201527f416464726573733a2063616c6c20746f206e6f6e2d636f6e74726163740000006044820152606401610175565b50816103f8565b6103f8838381511561055f5781518083602001fd5b8060405162461bcd60e51b81526004016101759190610607565b60006020828403121561058b57600080fd5b5051919050565b6000602082840312156105a457600080fd5b815180151581146105b457600080fd5b9392505050565b60005b838110156105d65781810151838201526020016105be565b838111156105e5576000848401525b50505050565b600082516105fd8184602087016105bb565b9190910192915050565b60208152600082518060208401526106268160408501602087016105bb565b601f01601f1916919091016040019291505056fea26469706673582212203643ef71ff3c710c1013505edb9787b70dc63c09e03347a13e643f354797000864736f6c634300080d0033a2646970667358221220414e5be22e7c229b0d5e7d02ff083d0f5c3896c177b6c2a575ce3e255c7c7f3764736f6c634300080d0033",
    "linkReferences": {}
  }
}